{
  "contractName": "NUDI_Token",
  "abi": [
    {
      "inputs": [],
      "payable": false,
      "stateMutability": "nonpayable",
      "type": "constructor"
    },
    {
      "constant": true,
      "inputs": [],
      "name": "totalSupply",
      "outputs": [
        {
          "internalType": "uint256",
          "name": "",
          "type": "uint256"
        }
      ],
      "payable": false,
      "stateMutability": "view",
      "type": "function"
    }
  ],
  "bytecode": "0x6080604052348015600f57600080fd5b50620f42406000819055506084806100286000396000f3fe6080604052348015600f57600080fd5b506004361060285760003560e01c806318160ddd14602d575b600080fd5b60336049565b6040518082815260200191505060405180910390f35b6000548156fea265627a7a72315820f6c2e612ef0ad8d167b2acef69d7f9c9111f4d554d6ffb35e9a4d17218e0e7ec64736f6c63430005100032",
  "source": "// SPDX-License-Identifier: MIT\r\npragma solidity >=0.4.22 <0.9.0;\r\n\r\n//This is the Nugget And Skadif Token(NUDI) pronounced like nutty\r\ncontract NUDI_Token\r\n{\r\n    /*TODO\r\n    Constructor\r\n    Set tokens\r\n    Read total tokens\r\n    */\r\n    uint256 public totalSupply;\r\n    constructor() public\r\n    {\r\n        totalSupply = 1000000;\r\n    }\r\n}",
  "sourcePath": "C:/Users/devin.000/Desktop/Cry/contracts/NUDI_Token.sol",
  "compiler": {
    "name": "solc",
    "version": "0.5.16+commit.9c3226ce.Emscripten.clang"
  },
  "schemaVersion": "3.4.0",
  "updatedAt": "2021-04-24T16:44:13.679Z",
  "networkType": "ethereum",
  "devdoc": {
    "methods": {}
  },
  "userdoc": {
    "methods": {}
  }
}